{
  "contractName": "Product",
  "abi": [
    {
      "constant": false,
      "inputs": [
        {
          "name": "_productCode",
          "type": "bytes32"
        }
      ],
      "name": "checkProduct",
      "outputs": [
        {
          "name": "",
          "type": "string"
        }
      ],
      "payable": false,
      "stateMutability": "nonpayable",
      "type": "function"
    },
    {
      "constant": true,
      "inputs": [
        {
          "name": "",
          "type": "bytes32"
        }
      ],
      "name": "products",
      "outputs": [
        {
          "name": "id",
          "type": "uint256"
        },
        {
          "name": "name",
          "type": "string"
        },
        {
          "name": "qrCode",
          "type": "string"
        },
        {
          "name": "soldStatus",
          "type": "bool"
        }
      ],
      "payable": false,
      "stateMutability": "view",
      "type": "function"
    },
    {
      "constant": true,
      "inputs": [
        {
          "name": "a",
          "type": "string"
        },
        {
          "name": "b",
          "type": "string"
        }
      ],
      "name": "compareStrings",
      "outputs": [
        {
          "name": "",
          "type": "bool"
        }
      ],
      "payable": false,
      "stateMutability": "view",
      "type": "function"
    },
    {
      "constant": false,
      "inputs": [
        {
          "name": "_productId",
          "type": "uint256"
        }
      ],
      "name": "buy",
      "outputs": [],
      "payable": false,
      "stateMutability": "nonpayable",
      "type": "function"
    },
    {
      "constant": true,
      "inputs": [],
      "name": "productCount",
      "outputs": [
        {
          "name": "",
          "type": "uint256"
        }
      ],
      "payable": false,
      "stateMutability": "view",
      "type": "function"
    },
    {
      "inputs": [],
      "payable": false,
      "stateMutability": "nonpayable",
      "type": "constructor"
    },
    {
      "anonymous": false,
      "inputs": [
        {
          "indexed": true,
          "name": "_productId",
          "type": "uint256"
        }
      ],
      "name": "buyEvent",
      "type": "event"
    }
  ],
  "bytecode": "0x606060405234156200001057600080fd5b6200009c6040805190810160405280600781526020017f4970686f6e6538000000000000000000000000000000000000000000000000008152506040805190810160405280600681526020017f415038393839000000000000000000000000000000000000000000000000000081525060006200035e6401000000000262000592176401000000009004565b620001286040805190810160405280600881526020017f4970686f6e6531300000000000000000000000000000000000000000000000008152506040805190810160405280600681526020017f415038393830000000000000000000000000000000000000000000000000000081525060006200035e6401000000000262000592176401000000009004565b620001b46040805190810160405280600781526020017f4970686f6e6537000000000000000000000000000000000000000000000000008152506040805190810160405280600681526020017f415038393730000000000000000000000000000000000000000000000000000081525060006200035e6401000000000262000592176401000000009004565b620002406040805190810160405280600781526020017f4970686f6e6536000000000000000000000000000000000000000000000000008152506040805190810160405280600681526020017f415038393630000000000000000000000000000000000000000000000000000081525060006200035e6401000000000262000592176401000000009004565b620002cc6040805190810160405280600881526020017f53616d73756e67310000000000000000000000000000000000000000000000008152506040805190810160405280600681526020017f534138393830000000000000000000000000000000000000000000000000000081525060006200035e6401000000000262000592176401000000009004565b620003586040805190810160405280600881526020017f53616d73756e67320000000000000000000000000000000000000000000000008152506040805190810160405280600681526020017f534138393830000000000000000000000000000000000000000000000000000081525060006200035e6401000000000262000592176401000000009004565b62000534565b600260008154809291906001019190505550608060405190810160405280600254815260200184815260200183815260200182151581525060016000846040518082805190602001908083835b602083101515620003d25780518252602082019150602081019050602083039250620003ab565b6001836020036101000a0380198251168184511680821785525050505050509050019150506040518091039020600019166000191681526020019081526020016000206000820151816000015560208201518160010190805190602001906200043d92919062000485565b5060408201518160020190805190602001906200045c92919062000485565b5060608201518160030160006101000a81548160ff021916908315150217905550905050505050565b828054600181600116156101000203166002900490600052602060002090601f016020900481019282601f10620004c857805160ff1916838001178555620004f9565b82800160010185558215620004f9579182015b82811115620004f8578251825591602001919060010190620004db565b5b5090506200050891906200050c565b5090565b6200053191905b808211156200052d57600081600090555060010162000513565b5090565b90565b61078480620005446000396000f30060606040526004361061006d576000357c0100000000000000000000000000000000000000000000000000000000900463ffffffff1680632987c8f7146100725780637905439114610112578063bed34bba1461026a578063d96a094a14610322578063e0f6ef8714610345575b600080fd5b341561007d57600080fd5b61009760048080356000191690602001909190505061036e565b6040518080602001828103825283818151815260200191508051906020019080838360005b838110156100d75780820151818401526020810190506100bc565b50505050905090810190601f1680156101045780820380516001836020036101000a031916815260200191505b509250505060405180910390f35b341561011d57600080fd5b610137600480803560001916906020019091905050610434565b604051808581526020018060200180602001841515151581526020018381038352868181546001816001161561010002031660029004815260200191508054600181600116156101000203166002900480156101d45780601f106101a9576101008083540402835291602001916101d4565b820191906000526020600020905b8154815290600101906020018083116101b757829003601f168201915b50508381038252858181546001816001161561010002031660029004815260200191508054600181600116156101000203166002900480156102575780601f1061022c57610100808354040283529160200191610257565b820191906000526020600020905b81548152906001019060200180831161023a57829003601f168201915b5050965050505050505060405180910390f35b341561027557600080fd5b610308600480803590602001908201803590602001908080601f0160208091040260200160405190810160405280939291908181526020018383808284378201915050505050509190803590602001908201803590602001908080601f0160208091040260200160405190810160405280939291908181526020018383808284378201915050505050509190505061046f565b604051808215151515815260200191505060405180910390f35b341561032d57600080fd5b6103436004808035906020019091905050610548565b005b341561035057600080fd5b610358610578565b6040518082815260200191505060405180910390f35b61037661057e565b6001600083600019166000191681526020019081526020016000206001018054600181600116156101000203166002900480601f0160208091040260200160405190810160405280929190818152602001828054600181600116156101000203166002900480156104285780601f106103fd57610100808354040283529160200191610428565b820191906000526020600020905b81548152906001019060200180831161040b57829003601f168201915b50505050509050919050565b6001602052806000526040600020600091509050806000015490806001019080600201908060030160009054906101000a900460ff16905084565b6000816040518082805190602001908083835b6020831015156104a75780518252602082019150602081019050602083039250610482565b6001836020036101000a038019825116818451168082178552505050505050905001915050604051809103902060001916836040518082805190602001908083835b60208310151561050e57805182526020820191506020810190506020830392506104e9565b6001836020036101000a03801982511681845116808217855250505050505090500191505060405180910390206000191614905092915050565b807f9e6ab81213fe852bda8cb471b7180c6413e26212e0b1f970c2e77cbccb7d214860405160405180910390a250565b60025481565b602060405190810160405280600081525090565b600260008154809291906001019190505550608060405190810160405280600254815260200184815260200183815260200182151581525060016000846040518082805190602001908083835b60208310151561060457805182526020820191506020810190506020830392506105df565b6001836020036101000a03801982511681845116808217855250505050505090500191505060405180910390206000191660001916815260200190815260200160002060008201518160000155602082015181600101908051906020019061066d9291906106b3565b50604082015181600201908051906020019061068a9291906106b3565b5060608201518160030160006101000a81548160ff021916908315150217905550905050505050565b828054600181600116156101000203166002900490600052602060002090601f016020900481019282601f106106f457805160ff1916838001178555610722565b82800160010185558215610722579182015b82811115610721578251825591602001919060010190610706565b5b50905061072f9190610733565b5090565b61075591905b80821115610751576000816000905550600101610739565b5090565b905600a165627a7a7230582097fef60539e452248ceadc5b219ec851fda32d1afd1b150780d79cff062543de0029",
  "source": "pragma solidity ^0.4.2;\n\ncontract Product{\n//Model a Product\n//Store Products\n// Fetch Products\n\nstruct product{\n    uint id;\n    string name;\n    string qrCode;\n    bool soldStatus;\n}\nstring productIdentity;\n\nmapping(bytes32 => product) public products;\nuint public productCount;\n\nfunction Product() public{\n   \n   addProduct(\"Iphone8\",\"AP8989\",false);\n   addProduct(\"Iphone10\",\"AP8980\",false);\n   addProduct(\"Iphone7\",\"AP8970\",false);\n   addProduct(\"Iphone6\",\"AP8960\",false);\n   addProduct(\"Samsung1\",\"SA8980\",false);\n   addProduct(\"Samsung2\",\"SA8980\",false);\n}\n\nfunction addProduct(string _name,string _qrCode,bool _status) private{\n\n    productCount++;\n    products[keccak256(_qrCode)]=product(productCount,_name,_qrCode,_status) ;\n\n}\n\n\n\n // voted event\n    event buyEvent (\n        uint indexed _productId\n    );\n\nfunction buy (uint _productId) public {\n        \n       // require(!products[_productId].soldStatus);\n\n        // update product status\n      //  products[_productId].soldStatus = true;\n\n        // trigger voted event\n        buyEvent(_productId);\n    }\n\n \nfunction checkProduct(bytes32 _productCode) returns (string){\n   // if(products[_productCode].qrCode)\n//   if(_answer == keccak256(\"hello\")){\n       // isAnswered = true;\n      //  winner = msg.sender;\n    //    return \"RIGHT\";\n  //  }\n  //  return \"WRONG\";\n    return products[_productCode].name;\n    }\n\nfunction strConcat(string _a, string _b, string _c, string _d, string _e) internal returns (string){\n    bytes memory _ba = bytes(_a);\n    bytes memory _bb = bytes(_b);\n    bytes memory _bc = bytes(_c);\n    bytes memory _bd = bytes(_d);\n    bytes memory _be = bytes(_e);\n    string memory abcde = new string(_ba.length + _bb.length + _bc.length + _bd.length + _be.length);\n    bytes memory babcde = bytes(abcde);\n    uint k = 0;\n    for (uint i = 0; i < _ba.length; i++) babcde[k++] = _ba[i];\n    for (i = 0; i < _bb.length; i++) babcde[k++] = _bb[i];\n    for (i = 0; i < _bc.length; i++) babcde[k++] = _bc[i];\n    for (i = 0; i < _bd.length; i++) babcde[k++] = _bd[i];\n    for (i = 0; i < _be.length; i++) babcde[k++] = _be[i];\n    return string(babcde);\n}\n\nfunction strConcat(string _a, string _b, string _c, string _d) internal returns (string) {\n    return strConcat(_a, _b, _c, _d, \"\");\n}\n\nfunction strConcat(string _a, string _b, string _c) internal returns (string) {\n    return strConcat(_a, _b, _c, \"\", \"\");\n}\n\nfunction strConcat(string _a, string _b) internal returns (string) {\n    return strConcat(_a, _b, \"\", \"\", \"\");\n}\n\nfunction compareStrings (string a, string b) view returns (bool){\n       return keccak256(a) == keccak256(b);\n   }\n}\n",
  "sourcePath": "/Users/madhavi/Desktop/ProductVerification/contracts/Product.sol",
  "compiler": {
    "name": "solc",
    "version": "0.4.18+commit.9cf6e910.Emscripten.clang"
  },
  "schemaVersion": "1.0.1",
  "updatedAt": "2018-03-30T02:56:06.451Z"
}